{
  "_format": "hh-sol-artifact-1",
  "contractName": "Gestion",
  "sourceName": "src/backend/contracts/Gestion.sol",
  "abi": [
    {
      "inputs": [],
      "stateMutability": "nonpayable",
      "type": "constructor"
    },
    {
      "anonymous": false,
      "inputs": [
        {
          "indexed": true,
          "internalType": "address",
          "name": "employer",
          "type": "address"
        },
        {
          "indexed": false,
          "internalType": "uint256",
          "name": "watch_id",
          "type": "uint256"
        }
      ],
      "name": "NewWatch",
      "type": "event"
    },
    {
      "inputs": [
        {
          "internalType": "uint256",
          "name": "serialNumber",
          "type": "uint256"
        },
        {
          "internalType": "address",
          "name": "to",
          "type": "address"
        },
        {
          "internalType": "uint256",
          "name": "idSeller",
          "type": "uint256"
        }
      ],
      "name": "Firstsell",
      "outputs": [],
      "stateMutability": "nonpayable",
      "type": "function"
    },
    {
      "inputs": [
        {
          "internalType": "uint256",
          "name": "id",
          "type": "uint256"
        },
        {
          "internalType": "uint256",
          "name": "newid",
          "type": "uint256"
        },
        {
          "internalType": "address",
          "name": "newAdmin",
          "type": "address"
        }
      ],
      "name": "addAdmin",
      "outputs": [],
      "stateMutability": "nonpayable",
      "type": "function"
    },
    {
      "inputs": [
        {
          "internalType": "uint256",
          "name": "idAdmin",
          "type": "uint256"
        },
        {
          "internalType": "uint256",
          "name": "idCreator",
          "type": "uint256"
        },
        {
          "internalType": "address",
          "name": "creator",
          "type": "address"
        }
      ],
      "name": "addCreator",
      "outputs": [],
      "stateMutability": "nonpayable",
      "type": "function"
    },
    {
      "inputs": [
        {
          "internalType": "uint256",
          "name": "idAdmin",
          "type": "uint256"
        },
        {
          "internalType": "uint256",
          "name": "idSeller",
          "type": "uint256"
        },
        {
          "internalType": "address",
          "name": "seller",
          "type": "address"
        }
      ],
      "name": "addSeller",
      "outputs": [],
      "stateMutability": "nonpayable",
      "type": "function"
    },
    {
      "inputs": [
        {
          "internalType": "address",
          "name": "newOwner",
          "type": "address"
        }
      ],
      "name": "changeOwner",
      "outputs": [],
      "stateMutability": "nonpayable",
      "type": "function"
    },
    {
      "inputs": [
        {
          "internalType": "uint256",
          "name": "idCreator",
          "type": "uint256"
        },
        {
          "internalType": "uint256",
          "name": "serialNumber",
          "type": "uint256"
        },
        {
          "internalType": "string",
          "name": "dateCreation",
          "type": "string"
        },
        {
          "internalType": "string[]",
          "name": "metrials",
          "type": "string[]"
        },
        {
          "internalType": "string",
          "name": "fp",
          "type": "string"
        },
        {
          "internalType": "string",
          "name": "image",
          "type": "string"
        },
        {
          "internalType": "string",
          "name": "video",
          "type": "string"
        }
      ],
      "name": "crearReloj",
      "outputs": [],
      "stateMutability": "nonpayable",
      "type": "function"
    },
    {
      "inputs": [
        {
          "internalType": "address",
          "name": "",
          "type": "address"
        },
        {
          "internalType": "uint256",
          "name": "",
          "type": "uint256"
        }
      ],
      "name": "employer_creation",
      "outputs": [
        {
          "internalType": "uint256",
          "name": "",
          "type": "uint256"
        }
      ],
      "stateMutability": "view",
      "type": "function"
    },
    {
      "inputs": [],
      "name": "getContractAddress",
      "outputs": [
        {
          "internalType": "address",
          "name": "",
          "type": "address"
        }
      ],
      "stateMutability": "view",
      "type": "function"
    },
    {
      "inputs": [],
      "name": "getOwner",
      "outputs": [
        {
          "internalType": "address",
          "name": "",
          "type": "address"
        }
      ],
      "stateMutability": "view",
      "type": "function"
    },
    {
      "inputs": [
        {
          "internalType": "uint256",
          "name": "idConsult",
          "type": "uint256"
        },
        {
          "internalType": "uint256",
          "name": "idSeller",
          "type": "uint256"
        }
      ],
      "name": "getSeller",
      "outputs": [
        {
          "internalType": "address",
          "name": "",
          "type": "address"
        }
      ],
      "stateMutability": "view",
      "type": "function"
    },
    {
      "inputs": [
        {
          "internalType": "uint256",
          "name": "",
          "type": "uint256"
        }
      ],
      "name": "id_nft",
      "outputs": [
        {
          "internalType": "address",
          "name": "",
          "type": "address"
        }
      ],
      "stateMutability": "view",
      "type": "function"
    },
    {
      "inputs": [],
      "name": "isAdmin",
      "outputs": [
        {
          "internalType": "bool",
          "name": "",
          "type": "bool"
        }
      ],
      "stateMutability": "view",
      "type": "function"
    },
    {
      "inputs": [],
      "name": "isCreator",
      "outputs": [
        {
          "internalType": "bool",
          "name": "",
          "type": "bool"
        }
      ],
      "stateMutability": "view",
      "type": "function"
    },
    {
      "inputs": [],
      "name": "isSeller",
      "outputs": [
        {
          "internalType": "bool",
          "name": "",
          "type": "bool"
        }
      ],
      "stateMutability": "view",
      "type": "function"
    },
    {
      "inputs": [
        {
          "internalType": "uint256",
          "name": "idAdmin",
          "type": "uint256"
        },
        {
          "internalType": "uint256",
          "name": "idCreator",
          "type": "uint256"
        }
      ],
      "name": "removeCreator",
      "outputs": [],
      "stateMutability": "nonpayable",
      "type": "function"
    },
    {
      "inputs": [
        {
          "internalType": "uint256",
          "name": "idAdmin",
          "type": "uint256"
        },
        {
          "internalType": "uint256",
          "name": "idSeller",
          "type": "uint256"
        }
      ],
      "name": "removeSeller",
      "outputs": [],
      "stateMutability": "nonpayable",
      "type": "function"
    },
    {
      "inputs": [
        {
          "internalType": "uint256",
          "name": "idAdmin",
          "type": "uint256"
        }
      ],
      "name": "removeadmin",
      "outputs": [],
      "stateMutability": "nonpayable",
      "type": "function"
    }
  ],
  "bytecode": "0x608060405234801561001057600080fd5b5033600660006101000a81548173ffffffffffffffffffffffffffffffffffffffff021916908373ffffffffffffffffffffffffffffffffffffffff160217905550615bb8806100616000396000f3fe60806040523480156200001157600080fd5b5060043610620001245760003560e01c8063a6f9dae111620000b1578063bf20d1e8116200007b578063bf20d1e814620002c7578063ccd2016b14620002e7578063d0d27b7c146200031d578063daee9ba9146200033d578063ee92d48414620003735762000124565b8063a6f9dae1146200022d578063a7541e9f146200024d578063ac181d7c146200026f578063b6db75a014620002a55762000124565b80636302cf9511620000f35780636302cf9514620001ab57806364bdec4b14620001cb5780637bafe36a14620001eb578063893d20e8146200020b5762000124565b80631fa6469e14620001295780632dbd654914620001495780633002b1be146200016957806332a2c5d01462000189575b600080fd5b620001476004803603810190620001419190620017d2565b62000395565b005b62000167600480360381019062000161919062001828565b6200050a565b005b6200018760048036038101906200018191906200170f565b620007d4565b005b620001936200095e565b604051620001a2919062001ac5565b60405180910390f35b620001c96004803603810190620001c39190620017d2565b62000966565b005b620001e96004803603810190620001e3919062001791565b62000b7f565b005b620002096004803603810190620002039190620017d2565b62000d0b565b005b6200021562000e81565b60405162000224919062001ac5565b60405180910390f35b6200024b6004803603810190620002459190620016a2565b62000eab565b005b6200025762000f4a565b60405162000266919062001ae2565b60405180910390f35b6200028d600480360381019062000287919062001791565b62000f9e565b6040516200029c919062001ac5565b60405180910390f35b620002af620010a3565b604051620002be919062001ae2565b60405180910390f35b620002e56004803603810190620002df91906200173b565b620010f7565b005b620003056004803603810190620002ff9190620016ce565b620012f4565b60405162000314919062001b21565b60405180910390f35b6200033b600480360381019062000335919062001791565b62001326565b005b6200035b60048036038101906200035591906200170f565b620014b0565b6040516200036a919062001ac5565b60405180910390f35b6200037d620014e3565b6040516200038c919062001ae2565b60405180910390f35b823373ffffffffffffffffffffffffffffffffffffffff166002600083815260200190815260200160002060009054906101000a900473ffffffffffffffffffffffffffffffffffffffff1673ffffffffffffffffffffffffffffffffffffffff161480620004515750600660009054906101000a900473ffffffffffffffffffffffffffffffffffffffff1673ffffffffffffffffffffffffffffffffffffffff163373ffffffffffffffffffffffffffffffffffffffff16145b6200045b57600080fd5b8160008085815260200190815260200160002060006101000a81548173ffffffffffffffffffffffffffffffffffffffff021916908373ffffffffffffffffffffffffffffffffffffffff1602179055506001600460008473ffffffffffffffffffffffffffffffffffffffff1673ffffffffffffffffffffffffffffffffffffffff16815260200190815260200160002060006101000a81548160ff02191690831515021790555050505050565b863373ffffffffffffffffffffffffffffffffffffffff1660008083815260200190815260200160002060009054906101000a900473ffffffffffffffffffffffffffffffffffffffff1673ffffffffffffffffffffffffffffffffffffffff16146200057657600080fd5b60008089815260200190815260200160002060009054906101000a900473ffffffffffffffffffffffffffffffffffffffff1673ffffffffffffffffffffffffffffffffffffffff163373ffffffffffffffffffffffffffffffffffffffff1614620005e157600080fd5b600030604051620005f29062001537565b620005fe919062001ac5565b604051809103906000f0801580156200061b573d6000803e3d6000fd5b50905080600760008a815260200190815260200160002060006101000a81548173ffffffffffffffffffffffffffffffffffffffff021916908373ffffffffffffffffffffffffffffffffffffffff16021790555060008190508073ffffffffffffffffffffffffffffffffffffffff1663fe40e4038a8a8a8a600660009054906101000a900473ffffffffffffffffffffffffffffffffffffffff168b8b6040518863ffffffff1660e01b8152600401620006de979695949392919062001b7b565b600060405180830381600087803b158015620006f957600080fd5b505af11580156200070e573d6000803e3d6000fd5b50505050600860003373ffffffffffffffffffffffffffffffffffffffff1673ffffffffffffffffffffffffffffffffffffffff1681526020019081526020016000208990806001815401808255809150506001900390600052602060002001600090919091909150553373ffffffffffffffffffffffffffffffffffffffff167f58c1ad98d5a0e391bbdafa1489837cdcbd3289cd382d90ce71516cb6396d54188a604051620007c0919062001b21565b60405180910390a250505050505050505050565b600660009054906101000a900473ffffffffffffffffffffffffffffffffffffffff1673ffffffffffffffffffffffffffffffffffffffff163373ffffffffffffffffffffffffffffffffffffffff16146200082f57600080fd5b6000600360006002600085815260200190815260200160002060009054906101000a900473ffffffffffffffffffffffffffffffffffffffff1673ffffffffffffffffffffffffffffffffffffffff1673ffffffffffffffffffffffffffffffffffffffff16815260200190815260200160002060006101000a81548160ff0219169083151502179055506002600082815260200190815260200160002060006101000a81549073ffffffffffffffffffffffffffffffffffffffff021916905560008082815260200190815260200160002060006101000a81549073ffffffffffffffffffffffffffffffffffffffff02191690556001600082815260200190815260200160002060006101000a81549073ffffffffffffffffffffffffffffffffffffffff021916905550565b600030905090565b823373ffffffffffffffffffffffffffffffffffffffff166002600083815260200190815260200160002060009054906101000a900473ffffffffffffffffffffffffffffffffffffffff1673ffffffffffffffffffffffffffffffffffffffff16148062000a225750600660009054906101000a900473ffffffffffffffffffffffffffffffffffffffff1673ffffffffffffffffffffffffffffffffffffffff163373ffffffffffffffffffffffffffffffffffffffff16145b62000a2c57600080fd5b816002600085815260200190815260200160002060006101000a81548173ffffffffffffffffffffffffffffffffffffffff021916908373ffffffffffffffffffffffffffffffffffffffff1602179055508160008085815260200190815260200160002060006101000a81548173ffffffffffffffffffffffffffffffffffffffff021916908373ffffffffffffffffffffffffffffffffffffffff160217905550816001600085815260200190815260200160002060006101000a81548173ffffffffffffffffffffffffffffffffffffffff021916908373ffffffffffffffffffffffffffffffffffffffff1602179055506001600360008473ffffffffffffffffffffffffffffffffffffffff1673ffffffffffffffffffffffffffffffffffffffff16815260200190815260200160002060006101000a81548160ff02191690831515021790555050505050565b813373ffffffffffffffffffffffffffffffffffffffff166002600083815260200190815260200160002060009054906101000a900473ffffffffffffffffffffffffffffffffffffffff1673ffffffffffffffffffffffffffffffffffffffff16148062000c3b5750600660009054906101000a900473ffffffffffffffffffffffffffffffffffffffff1673ffffffffffffffffffffffffffffffffffffffff163373ffffffffffffffffffffffffffffffffffffffff16145b62000c4557600080fd5b6000600560006001600086815260200190815260200160002060009054906101000a900473ffffffffffffffffffffffffffffffffffffffff1673ffffffffffffffffffffffffffffffffffffffff1673ffffffffffffffffffffffffffffffffffffffff16815260200190815260200160002060006101000a81548160ff0219169083151502179055506001600083815260200190815260200160002060006101000a81549073ffffffffffffffffffffffffffffffffffffffff0219169055505050565b823373ffffffffffffffffffffffffffffffffffffffff166002600083815260200190815260200160002060009054906101000a900473ffffffffffffffffffffffffffffffffffffffff1673ffffffffffffffffffffffffffffffffffffffff16148062000dc75750600660009054906101000a900473ffffffffffffffffffffffffffffffffffffffff1673ffffffffffffffffffffffffffffffffffffffff163373ffffffffffffffffffffffffffffffffffffffff16145b62000dd157600080fd5b816001600085815260200190815260200160002060006101000a81548173ffffffffffffffffffffffffffffffffffffffff021916908373ffffffffffffffffffffffffffffffffffffffff1602179055506001600560008473ffffffffffffffffffffffffffffffffffffffff1673ffffffffffffffffffffffffffffffffffffffff16815260200190815260200160002060006101000a81548160ff02191690831515021790555050505050565b6000600660009054906101000a900473ffffffffffffffffffffffffffffffffffffffff16905090565b600660009054906101000a900473ffffffffffffffffffffffffffffffffffffffff1673ffffffffffffffffffffffffffffffffffffffff163373ffffffffffffffffffffffffffffffffffffffff161462000f0657600080fd5b80600660006101000a81548173ffffffffffffffffffffffffffffffffffffffff021916908373ffffffffffffffffffffffffffffffffffffffff16021790555050565b6000600560003373ffffffffffffffffffffffffffffffffffffffff1673ffffffffffffffffffffffffffffffffffffffff16815260200190815260200160002060009054906101000a900460ff16905090565b6000823373ffffffffffffffffffffffffffffffffffffffff166002600083815260200190815260200160002060009054906101000a900473ffffffffffffffffffffffffffffffffffffffff1673ffffffffffffffffffffffffffffffffffffffff1614806200105c5750600660009054906101000a900473ffffffffffffffffffffffffffffffffffffffff1673ffffffffffffffffffffffffffffffffffffffff163373ffffffffffffffffffffffffffffffffffffffff16145b6200106657600080fd5b6001600084815260200190815260200160002060009054906101000a900473ffffffffffffffffffffffffffffffffffffffff1691505092915050565b6000600360003373ffffffffffffffffffffffffffffffffffffffff1673ffffffffffffffffffffffffffffffffffffffff16815260200190815260200160002060009054906101000a900460ff16905090565b803373ffffffffffffffffffffffffffffffffffffffff166001600083815260200190815260200160002060009054906101000a900473ffffffffffffffffffffffffffffffffffffffff1673ffffffffffffffffffffffffffffffffffffffff16146200116457600080fd5b6001600083815260200190815260200160002060009054906101000a900473ffffffffffffffffffffffffffffffffffffffff1673ffffffffffffffffffffffffffffffffffffffff163373ffffffffffffffffffffffffffffffffffffffff1614620011d057600080fd5b3373ffffffffffffffffffffffffffffffffffffffff168373ffffffffffffffffffffffffffffffffffffffff16141562001242576040517f08c379a0000000000000000000000000000000000000000000000000000000008152600401620012399062001aff565b60405180910390fd5b60006007600086815260200190815260200160002060009054906101000a900473ffffffffffffffffffffffffffffffffffffffff1690508073ffffffffffffffffffffffffffffffffffffffff1663067fe9d28633876040518463ffffffff1660e01b8152600401620012b99392919062001b3e565b600060405180830381600087803b158015620012d457600080fd5b505af1158015620012e9573d6000803e3d6000fd5b505050505050505050565b600860205281600052604060002081815481106200131157600080fd5b90600052602060002001600091509150505481565b813373ffffffffffffffffffffffffffffffffffffffff166002600083815260200190815260200160002060009054906101000a900473ffffffffffffffffffffffffffffffffffffffff1673ffffffffffffffffffffffffffffffffffffffff161480620013e25750600660009054906101000a900473ffffffffffffffffffffffffffffffffffffffff1673ffffffffffffffffffffffffffffffffffffffff163373ffffffffffffffffffffffffffffffffffffffff16145b620013ec57600080fd5b60006004600080600086815260200190815260200160002060009054906101000a900473ffffffffffffffffffffffffffffffffffffffff1673ffffffffffffffffffffffffffffffffffffffff1673ffffffffffffffffffffffffffffffffffffffff16815260200190815260200160002060006101000a81548160ff02191690831515021790555060008083815260200190815260200160002060006101000a81549073ffffffffffffffffffffffffffffffffffffffff0219169055505050565b60076020528060005260406000206000915054906101000a900473ffffffffffffffffffffffffffffffffffffffff1681565b6000600460003373ffffffffffffffffffffffffffffffffffffffff1673ffffffffffffffffffffffffffffffffffffffff16815260200190815260200160002060009054906101000a900460ff16905090565b613ceb8062001e9883390190565b60006200155c620015568462001c44565b62001c1b565b905080838252602082019050828560208602820111156200157c57600080fd5b60005b85811015620015cb57813567ffffffffffffffff811115620015a057600080fd5b808601620015af89826200165e565b855260208501945060208401935050506001810190506200157f565b5050509392505050565b6000620015ec620015e68462001c73565b62001c1b565b9050828152602081018484840111156200160557600080fd5b6200161284828562001d59565b509392505050565b6000813590506200162b8162001e63565b92915050565b600082601f8301126200164357600080fd5b81356200165584826020860162001545565b91505092915050565b600082601f8301126200167057600080fd5b813562001682848260208601620015d5565b91505092915050565b6000813590506200169c8162001e7d565b92915050565b600060208284031215620016b557600080fd5b6000620016c5848285016200161a565b91505092915050565b60008060408385031215620016e257600080fd5b6000620016f2858286016200161a565b925050602062001705858286016200168b565b9150509250929050565b6000602082840312156200172257600080fd5b600062001732848285016200168b565b91505092915050565b6000806000606084860312156200175157600080fd5b600062001761868287016200168b565b935050602062001774868287016200161a565b925050604062001787868287016200168b565b9150509250925092565b60008060408385031215620017a557600080fd5b6000620017b5858286016200168b565b9250506020620017c8858286016200168b565b9150509250929050565b600080600060608486031215620017e857600080fd5b6000620017f8868287016200168b565b93505060206200180b868287016200168b565b92505060406200181e868287016200161a565b9150509250925092565b600080600080600080600060e0888a0312156200184457600080fd5b6000620018548a828b016200168b565b9750506020620018678a828b016200168b565b965050604088013567ffffffffffffffff8111156200188557600080fd5b620018938a828b016200165e565b955050606088013567ffffffffffffffff811115620018b157600080fd5b620018bf8a828b0162001631565b945050608088013567ffffffffffffffff811115620018dd57600080fd5b620018eb8a828b016200165e565b93505060a088013567ffffffffffffffff8111156200190957600080fd5b620019178a828b016200165e565b92505060c088013567ffffffffffffffff8111156200193557600080fd5b620019438a828b016200165e565b91505092959891949750929550565b600062001960838362001a0b565b905092915050565b620019738162001d0f565b82525050565b6000620019868262001cb9565b62001992818562001cdc565b935083602082028501620019a68562001ca9565b8060005b85811015620019e85784840389528151620019c6858262001952565b9450620019d38362001ccf565b925060208a01995050600181019050620019aa565b50829750879550505050505092915050565b62001a058162001d23565b82525050565b600062001a188262001cc4565b62001a24818562001ced565b935062001a3681856020860162001d68565b62001a418162001e03565b840191505092915050565b600062001a598262001cc4565b62001a65818562001cfe565b935062001a7781856020860162001d68565b62001a828162001e03565b840191505092915050565b600062001a9c60278362001cfe565b915062001aa98262001e14565b604082019050919050565b62001abf8162001d4f565b82525050565b600060208201905062001adc600083018462001968565b92915050565b600060208201905062001af96000830184620019fa565b92915050565b6000602082019050818103600083015262001b1a8162001a8d565b9050919050565b600060208201905062001b38600083018462001ab4565b92915050565b600060608201905062001b55600083018662001ab4565b62001b64602083018562001968565b62001b73604083018462001968565b949350505050565b600060e08201905062001b92600083018a62001ab4565b818103602083015262001ba6818962001a4c565b9050818103604083015262001bbc818862001979565b9050818103606083015262001bd2818762001a4c565b905062001be3608083018662001968565b81810360a083015262001bf7818562001a4c565b905081810360c083015262001c0d818462001a4c565b905098975050505050505050565b600062001c2762001c3a565b905062001c35828262001d9e565b919050565b6000604051905090565b600067ffffffffffffffff82111562001c625762001c6162001dd4565b5b602082029050602081019050919050565b600067ffffffffffffffff82111562001c915762001c9062001dd4565b5b62001c9c8262001e03565b9050602081019050919050565b6000819050602082019050919050565b600081519050919050565b600081519050919050565b6000602082019050919050565b600082825260208201905092915050565b600082825260208201905092915050565b600082825260208201905092915050565b600062001d1c8262001d2f565b9050919050565b60008115159050919050565b600073ffffffffffffffffffffffffffffffffffffffff82169050919050565b6000819050919050565b82818337600083830152505050565b60005b8381101562001d8857808201518184015260208101905062001d6b565b8381111562001d98576000848401525b50505050565b62001da98262001e03565b810181811067ffffffffffffffff8211171562001dcb5762001dca62001dd4565b5b80604052505050565b7f4e487b7100000000000000000000000000000000000000000000000000000000600052604160045260246000fd5b6000601f19601f8301169050919050565b7f596f752063616e207472616e736665722074687720776174636820746f20796f60008201527f75722073656c6600000000000000000000000000000000000000000000000000602082015250565b62001e6e8162001d0f565b811462001e7a57600080fd5b50565b62001e888162001d4f565b811462001e9457600080fd5b5056fe60806040523480156200001157600080fd5b5060405162003ceb38038062003ceb8339818101604052810190620000379190620001e6565b6040518060400160405280600c81526020017f436865726e6f20576174636800000000000000000000000000000000000000008152506040518060400160405280600281526020017f43570000000000000000000000000000000000000000000000000000000000008152508160009080519060200190620000bb9291906200011f565b508060019080519060200190620000d49291906200011f565b50505080600660006101000a81548173ffffffffffffffffffffffffffffffffffffffff021916908373ffffffffffffffffffffffffffffffffffffffff16021790555050620002c5565b8280546200012d9062000246565b90600052602060002090601f0160209004810192826200015157600085556200019d565b82601f106200016c57805160ff19168380011785556200019d565b828001600101855582156200019d579182015b828111156200019c5782518255916020019190600101906200017f565b5b509050620001ac9190620001b0565b5090565b5b80821115620001cb576000816000905550600101620001b1565b5090565b600081519050620001e081620002ab565b92915050565b600060208284031215620001f957600080fd5b60006200020984828501620001cf565b91505092915050565b60006200021f8262000226565b9050919050565b600073ffffffffffffffffffffffffffffffffffffffff82169050919050565b600060028204905060018216806200025f57607f821691505b602082108114156200027657620002756200027c565b5b50919050565b7f4e487b7100000000000000000000000000000000000000000000000000000000600052602260045260246000fd5b620002b68162000212565b8114620002c257600080fd5b50565b613a1680620002d56000396000f3fe608060405234801561001057600080fd5b50600436106101375760003560e01c806370a08231116100b8578063b7760c8f1161007c578063b7760c8f14610353578063b88d4fde1461036f578063c87b56dd1461038b578063d523c02a146103bb578063e985e9c5146103d9578063fe40e4031461040957610137565b806370a08231146102ad57806380dfedcd146102dd57806395d89b41146102fb578063a0e67e2b14610319578063a22cb4651461033757610137565b806323b872dd116100ff57806323b872dd146101f25780633489d8741461020e57806342842e0e14610231578063518a83201461024d5780636352211e1461027d57610137565b806301ffc9a71461013c578063067fe9d21461016c57806306fdde0314610188578063081812fc146101a6578063095ea7b3146101d6575b600080fd5b61015660048036038101906101519190612691565b610425565b6040516101639190612dc3565b60405180910390f35b61018660048036038101906101819190612748565b610507565b005b610190610720565b60405161019d9190612dde565b60405180910390f35b6101c060048036038101906101bb91906126e3565b6107b2565b6040516101cd9190612d18565b60405180910390f35b6101f060048036038101906101eb9190612655565b610837565b005b61020c6004803603810190610207919061254f565b61094f565b005b6102166109af565b6040516102289695949392919061301b565b60405180910390f35b61024b6004803603810190610246919061254f565b610c19565b005b610267600480360381019061026291906126e3565b610c39565b6040516102749190612d18565b60405180910390f35b610297600480360381019061029291906126e3565b610c78565b6040516102a49190612d18565b60405180910390f35b6102c760048036038101906102c291906124ea565b610d2a565b6040516102d49190613000565b60405180910390f35b6102e5610de2565b6040516102f29190612da1565b60405180910390f35b610303610ebe565b6040516103109190612dde565b60405180910390f35b610321610f50565b60405161032e9190612d7f565b60405180910390f35b610351600480360381019061034c9190612619565b610fde565b005b61036d6004803603810190610368919061270c565b610ff4565b005b6103896004803603810190610384919061259e565b611117565b005b6103a560048036038101906103a091906126e3565b611179565b6040516103b29190612dde565b60405180910390f35b6103c3611220565b6040516103d09190612d18565b60405180910390f35b6103f360048036038101906103ee9190612513565b61124a565b6040516104009190612dc3565b60405180910390f35b610423600480360381019061041e9190612797565b6112de565b005b60007f80ac58cd000000000000000000000000000000000000000000000000000000007bffffffffffffffffffffffffffffffffffffffffffffffffffffffff1916827bffffffffffffffffffffffffffffffffffffffffffffffffffffffff191614806104f057507f5b5e139f000000000000000000000000000000000000000000000000000000007bffffffffffffffffffffffffffffffffffffffffffffffffffffffff1916827bffffffffffffffffffffffffffffffffffffffffffffffffffffffff1916145b8061050057506104ff8261151a565b5b9050919050565b600660009054906101000a900473ffffffffffffffffffffffffffffffffffffffff1673ffffffffffffffffffffffffffffffffffffffff163373ffffffffffffffffffffffffffffffffffffffff1614610597576040517f08c379a000000000000000000000000000000000000000000000000000000000815260040161058e90612ea0565b60405180910390fd5b6001600e80549050146105df576040517f08c379a00000000000000000000000000000000000000000000000000000000081526004016105d690612ee0565b60405180910390fd5b600e819080600181540180825580915050600190039060005260206000200160009091909190916101000a81548173ffffffffffffffffffffffffffffffffffffffff021916908373ffffffffffffffffffffffffffffffffffffffff160217905550610672600760040160009054906101000a900473ffffffffffffffffffffffffffffffffffffffff168285610c19565b80600760040160006101000a81548173ffffffffffffffffffffffffffffffffffffffff021916908373ffffffffffffffffffffffffffffffffffffffff1602179055508073ffffffffffffffffffffffffffffffffffffffff168273ffffffffffffffffffffffffffffffffffffffff167f70d8a7f138a270974c54f5ae8c1fdcc145bfa2fca38040b961673a102874c057856040516107139190613000565b60405180910390a3505050565b60606000805461072f90613382565b80601f016020809104026020016040519081016040528092919081815260200182805461075b90613382565b80156107a85780601f1061077d576101008083540402835291602001916107a8565b820191906000526020600020905b81548152906001019060200180831161078b57829003601f168201915b5050505050905090565b60006107bd82611584565b6107fc576040517f08c379a00000000000000000000000000000000000000000000000000000000081526004016107f390612f80565b60405180910390fd5b6004600083815260200190815260200160002060009054906101000a900473ffffffffffffffffffffffffffffffffffffffff169050919050565b600061084282610c78565b90508073ffffffffffffffffffffffffffffffffffffffff168373ffffffffffffffffffffffffffffffffffffffff1614156108b3576040517f08c379a00000000000000000000000000000000000000000000000000000000081526004016108aa90612fc0565b60405180910390fd5b8073ffffffffffffffffffffffffffffffffffffffff166108d26115f0565b73ffffffffffffffffffffffffffffffffffffffff1614806109015750610900816108fb6115f0565b61124a565b5b610940576040517f08c379a000000000000000000000000000000000000000000000000000000000815260040161093790612f00565b60405180910390fd5b61094a83836115f8565b505050565b61096061095a6115f0565b826116b1565b61099f576040517f08c379a000000000000000000000000000000000000000000000000000000000815260040161099690612fe0565b60405180910390fd5b6109aa83838361178f565b505050565b60078060000154908060010180546109c690613382565b80601f01602080910402602001604051908101604052809291908181526020018280546109f290613382565b8015610a3f5780601f10610a1457610100808354040283529160200191610a3f565b820191906000526020600020905b815481529060010190602001808311610a2257829003601f168201915b505050505090806003018054610a5490613382565b80601f0160208091040260200160405190810160405280929190818152602001828054610a8090613382565b8015610acd5780601f10610aa257610100808354040283529160200191610acd565b820191906000526020600020905b815481529060010190602001808311610ab057829003601f168201915b5050505050908060040160009054906101000a900473ffffffffffffffffffffffffffffffffffffffff1690806005018054610b0890613382565b80601f0160208091040260200160405190810160405280929190818152602001828054610b3490613382565b8015610b815780601f10610b5657610100808354040283529160200191610b81565b820191906000526020600020905b815481529060010190602001808311610b6457829003601f168201915b505050505090806006018054610b9690613382565b80601f0160208091040260200160405190810160405280929190818152602001828054610bc290613382565b8015610c0f5780601f10610be457610100808354040283529160200191610c0f565b820191906000526020600020905b815481529060010190602001808311610bf257829003601f168201915b5050505050905086565b610c3483838360405180602001604052806000815250611117565b505050565b600e8181548110610c4957600080fd5b906000526020600020016000915054906101000a900473ffffffffffffffffffffffffffffffffffffffff1681565b6000806002600084815260200190815260200160002060009054906101000a900473ffffffffffffffffffffffffffffffffffffffff169050600073ffffffffffffffffffffffffffffffffffffffff168173ffffffffffffffffffffffffffffffffffffffff161415610d21576040517f08c379a0000000000000000000000000000000000000000000000000000000008152600401610d1890612f40565b60405180910390fd5b80915050919050565b60008073ffffffffffffffffffffffffffffffffffffffff168273ffffffffffffffffffffffffffffffffffffffff161415610d9b576040517f08c379a0000000000000000000000000000000000000000000000000000000008152600401610d9290612f20565b60405180910390fd5b600360008373ffffffffffffffffffffffffffffffffffffffff1673ffffffffffffffffffffffffffffffffffffffff168152602001908152602001600020549050919050565b60606007600201805480602002602001604051908101604052809291908181526020016000905b82821015610eb5578382906000526020600020018054610e2890613382565b80601f0160208091040260200160405190810160405280929190818152602001828054610e5490613382565b8015610ea15780601f10610e7657610100808354040283529160200191610ea1565b820191906000526020600020905b815481529060010190602001808311610e8457829003601f168201915b505050505081526020019060010190610e09565b50505050905090565b606060018054610ecd90613382565b80601f0160208091040260200160405190810160405280929190818152602001828054610ef990613382565b8015610f465780601f10610f1b57610100808354040283529160200191610f46565b820191906000526020600020905b815481529060010190602001808311610f2957829003601f168201915b5050505050905090565b6060600e805480602002602001604051908101604052809291908181526020018280548015610fd457602002820191906000526020600020905b8160009054906101000a900473ffffffffffffffffffffffffffffffffffffffff1673ffffffffffffffffffffffffffffffffffffffff1681526020019060010190808311610f8a575b5050505050905090565b610ff0610fe96115f0565b83836119f6565b5050565b6001600e805490501161103c576040517f08c379a000000000000000000000000000000000000000000000000000000000815260040161103390612ee0565b60405180910390fd5b600e819080600181540180825580915050600190039060005260206000200160009091909190916101000a81548173ffffffffffffffffffffffffffffffffffffffff021916908373ffffffffffffffffffffffffffffffffffffffff1602179055506110cf600760040160009054906101000a900473ffffffffffffffffffffffffffffffffffffffff168284610c19565b80600760040160006101000a81548173ffffffffffffffffffffffffffffffffffffffff021916908373ffffffffffffffffffffffffffffffffffffffff1602179055505050565b6111286111226115f0565b836116b1565b611167576040517f08c379a000000000000000000000000000000000000000000000000000000000815260040161115e90612fe0565b60405180910390fd5b61117384848484611b63565b50505050565b606061118482611584565b6111c3576040517f08c379a00000000000000000000000000000000000000000000000000000000081526004016111ba90612fa0565b60405180910390fd5b60006111cd611bbf565b905060008151116111ed5760405180602001604052806000815250611218565b806111f784611bd6565b604051602001611208929190612cf4565b6040516020818303038152906040525b915050919050565b6000600660009054906101000a900473ffffffffffffffffffffffffffffffffffffffff16905090565b6000600560008473ffffffffffffffffffffffffffffffffffffffff1673ffffffffffffffffffffffffffffffffffffffff16815260200190815260200160002060008373ffffffffffffffffffffffffffffffffffffffff1673ffffffffffffffffffffffffffffffffffffffff16815260200190815260200160002060009054906101000a900460ff16905092915050565b600660009054906101000a900473ffffffffffffffffffffffffffffffffffffffff1673ffffffffffffffffffffffffffffffffffffffff163373ffffffffffffffffffffffffffffffffffffffff161461136e576040517f08c379a000000000000000000000000000000000000000000000000000000000815260040161136590612ea0565b60405180910390fd5b600e839080600181540180825580915050600190039060005260206000200160009091909190916101000a81548173ffffffffffffffffffffffffffffffffffffffff021916908373ffffffffffffffffffffffffffffffffffffffff16021790555060006040518060e001604052808981526020018881526020018781526020018681526020018573ffffffffffffffffffffffffffffffffffffffff16815260200184815260200183815250905080600760008201518160000155602082015181600101908051906020019061144792919061219a565b506040820151816002019080519060200190611464929190612220565b50606082015181600301908051906020019061148192919061219a565b5060808201518160040160006101000a81548173ffffffffffffffffffffffffffffffffffffffff021916908373ffffffffffffffffffffffffffffffffffffffff16021790555060a08201518160050190805190602001906114e592919061219a565b5060c082015181600601908051906020019061150292919061219a565b509050506115108489611d83565b5050505050505050565b60007f01ffc9a7000000000000000000000000000000000000000000000000000000007bffffffffffffffffffffffffffffffffffffffffffffffffffffffff1916827bffffffffffffffffffffffffffffffffffffffffffffffffffffffff1916149050919050565b60008073ffffffffffffffffffffffffffffffffffffffff166002600084815260200190815260200160002060009054906101000a900473ffffffffffffffffffffffffffffffffffffffff1673ffffffffffffffffffffffffffffffffffffffff1614159050919050565b600033905090565b816004600083815260200190815260200160002060006101000a81548173ffffffffffffffffffffffffffffffffffffffff021916908373ffffffffffffffffffffffffffffffffffffffff160217905550808273ffffffffffffffffffffffffffffffffffffffff1661166b83610c78565b73ffffffffffffffffffffffffffffffffffffffff167f8c5be1e5ebec7d5bd14f71427d1e84f3dd0314c0f7b2291e5b200ac8c7c3b92560405160405180910390a45050565b60006116bc82611584565b6116fb576040517f08c379a00000000000000000000000000000000000000000000000000000000081526004016116f290612ec0565b60405180910390fd5b600061170683610c78565b90508073ffffffffffffffffffffffffffffffffffffffff168473ffffffffffffffffffffffffffffffffffffffff16148061177557508373ffffffffffffffffffffffffffffffffffffffff1661175d846107b2565b73ffffffffffffffffffffffffffffffffffffffff16145b806117865750611785818561124a565b5b91505092915050565b8273ffffffffffffffffffffffffffffffffffffffff166117af82610c78565b73ffffffffffffffffffffffffffffffffffffffff1614611805576040517f08c379a00000000000000000000000000000000000000000000000000000000081526004016117fc90612e20565b60405180910390fd5b600073ffffffffffffffffffffffffffffffffffffffff168273ffffffffffffffffffffffffffffffffffffffff161415611875576040517f08c379a000000000000000000000000000000000000000000000000000000000815260040161186c90612e60565b60405180910390fd5b611880838383611da1565b61188b6000826115f8565b6001600360008573ffffffffffffffffffffffffffffffffffffffff1673ffffffffffffffffffffffffffffffffffffffff16815260200190815260200160002060008282546118db9190613298565b925050819055506001600360008473ffffffffffffffffffffffffffffffffffffffff1673ffffffffffffffffffffffffffffffffffffffff16815260200190815260200160002060008282546119329190613211565b92505081905550816002600083815260200190815260200160002060006101000a81548173ffffffffffffffffffffffffffffffffffffffff021916908373ffffffffffffffffffffffffffffffffffffffff160217905550808273ffffffffffffffffffffffffffffffffffffffff168473ffffffffffffffffffffffffffffffffffffffff167fddf252ad1be2c89b69c2b068fc378daa952ba7f163c4a11628f55a4df523b3ef60405160405180910390a46119f1838383611da6565b505050565b8173ffffffffffffffffffffffffffffffffffffffff168373ffffffffffffffffffffffffffffffffffffffff161415611a65576040517f08c379a0000000000000000000000000000000000000000000000000000000008152600401611a5c90612e80565b60405180910390fd5b80600560008573ffffffffffffffffffffffffffffffffffffffff1673ffffffffffffffffffffffffffffffffffffffff16815260200190815260200160002060008473ffffffffffffffffffffffffffffffffffffffff1673ffffffffffffffffffffffffffffffffffffffff16815260200190815260200160002060006101000a81548160ff0219169083151502179055508173ffffffffffffffffffffffffffffffffffffffff168373ffffffffffffffffffffffffffffffffffffffff167f17307eab39ab6107e8899845ad3d59bd9653f200f220920489ca2b5937696c3183604051611b569190612dc3565b60405180910390a3505050565b611b6e84848461178f565b611b7a84848484611dab565b611bb9576040517f08c379a0000000000000000000000000000000000000000000000000000000008152600401611bb090612e00565b60405180910390fd5b50505050565b606060405180602001604052806000815250905090565b60606000821415611c1e576040518060400160405280600181526020017f30000000000000000000000000000000000000000000000000000000000000008152509050611d7e565b600082905060005b60008214611c50578080611c39906133e5565b915050600a82611c499190613267565b9150611c26565b60008167ffffffffffffffff811115611c92577f4e487b7100000000000000000000000000000000000000000000000000000000600052604160045260246000fd5b6040519080825280601f01601f191660200182016040528015611cc45781602001600182028036833780820191505090505b5090505b60008514611d7757600182611cdd9190613298565b9150600a85611cec919061342e565b6030611cf89190613211565b60f81b818381518110611d34577f4e487b7100000000000000000000000000000000000000000000000000000000600052603260045260246000fd5b60200101907effffffffffffffffffffffffffffffffffffffffffffffffffffffffffffff1916908160001a905350600a85611d709190613267565b9450611cc8565b8093505050505b919050565b611d9d828260405180602001604052806000815250611f42565b5050565b505050565b505050565b6000611dcc8473ffffffffffffffffffffffffffffffffffffffff16611f9d565b15611f35578373ffffffffffffffffffffffffffffffffffffffff1663150b7a02611df56115f0565b8786866040518563ffffffff1660e01b8152600401611e179493929190612d33565b602060405180830381600087803b158015611e3157600080fd5b505af1925050508015611e6257506040513d601f19601f82011682018060405250810190611e5f91906126ba565b60015b611ee5573d8060008114611e92576040519150601f19603f3d011682016040523d82523d6000602084013e611e97565b606091505b50600081511415611edd576040517f08c379a0000000000000000000000000000000000000000000000000000000008152600401611ed490612e00565b60405180910390fd5b805181602001fd5b63150b7a0260e01b7bffffffffffffffffffffffffffffffffffffffffffffffffffffffff1916817bffffffffffffffffffffffffffffffffffffffffffffffffffffffff191614915050611f3a565b600190505b949350505050565b611f4c8383611fc0565b611f596000848484611dab565b611f98576040517f08c379a0000000000000000000000000000000000000000000000000000000008152600401611f8f90612e00565b60405180910390fd5b505050565b6000808273ffffffffffffffffffffffffffffffffffffffff163b119050919050565b600073ffffffffffffffffffffffffffffffffffffffff168273ffffffffffffffffffffffffffffffffffffffff161415612030576040517f08c379a000000000000000000000000000000000000000000000000000000000815260040161202790612f60565b60405180910390fd5b61203981611584565b15612079576040517f08c379a000000000000000000000000000000000000000000000000000000000815260040161207090612e40565b60405180910390fd5b61208560008383611da1565b6001600360008473ffffffffffffffffffffffffffffffffffffffff1673ffffffffffffffffffffffffffffffffffffffff16815260200190815260200160002060008282546120d59190613211565b92505081905550816002600083815260200190815260200160002060006101000a81548173ffffffffffffffffffffffffffffffffffffffff021916908373ffffffffffffffffffffffffffffffffffffffff160217905550808273ffffffffffffffffffffffffffffffffffffffff16600073ffffffffffffffffffffffffffffffffffffffff167fddf252ad1be2c89b69c2b068fc378daa952ba7f163c4a11628f55a4df523b3ef60405160405180910390a461219660008383611da6565b5050565b8280546121a690613382565b90600052602060002090601f0160209004810192826121c8576000855561220f565b82601f106121e157805160ff191683800117855561220f565b8280016001018555821561220f579182015b8281111561220e5782518255916020019190600101906121f3565b5b50905061221c9190612280565b5090565b82805482825590600052602060002090810192821561226f579160200282015b8281111561226e57825182908051906020019061225e92919061219a565b5091602001919060010190612240565b5b50905061227c919061229d565b5090565b5b80821115612299576000816000905550600101612281565b5090565b5b808211156122bd57600081816122b491906122c1565b5060010161229e565b5090565b5080546122cd90613382565b6000825580601f106122df57506122fe565b601f0160209004906000526020600020908101906122fd9190612280565b5b50565b600061231461230f846130bd565b613098565b9050808382526020820190508285602086028201111561233357600080fd5b60005b8581101561237d57813567ffffffffffffffff81111561235557600080fd5b80860161236289826124ab565b85526020850194506020840193505050600181019050612336565b5050509392505050565b600061239a612395846130e9565b613098565b9050828152602081018484840111156123b257600080fd5b6123bd848285613340565b509392505050565b60006123d86123d38461311a565b613098565b9050828152602081018484840111156123f057600080fd5b6123fb848285613340565b509392505050565b60008135905061241281613984565b92915050565b600082601f83011261242957600080fd5b8135612439848260208601612301565b91505092915050565b6000813590506124518161399b565b92915050565b600081359050612466816139b2565b92915050565b60008151905061247b816139b2565b92915050565b600082601f83011261249257600080fd5b81356124a2848260208601612387565b91505092915050565b600082601f8301126124bc57600080fd5b81356124cc8482602086016123c5565b91505092915050565b6000813590506124e4816139c9565b92915050565b6000602082840312156124fc57600080fd5b600061250a84828501612403565b91505092915050565b6000806040838503121561252657600080fd5b600061253485828601612403565b925050602061254585828601612403565b9150509250929050565b60008060006060848603121561256457600080fd5b600061257286828701612403565b935050602061258386828701612403565b9250506040612594868287016124d5565b9150509250925092565b600080600080608085870312156125b457600080fd5b60006125c287828801612403565b94505060206125d387828801612403565b93505060406125e4878288016124d5565b925050606085013567ffffffffffffffff81111561260157600080fd5b61260d87828801612481565b91505092959194509250565b6000806040838503121561262c57600080fd5b600061263a85828601612403565b925050602061264b85828601612442565b9150509250929050565b6000806040838503121561266857600080fd5b600061267685828601612403565b9250506020612687858286016124d5565b9150509250929050565b6000602082840312156126a357600080fd5b60006126b184828501612457565b91505092915050565b6000602082840312156126cc57600080fd5b60006126da8482850161246c565b91505092915050565b6000602082840312156126f557600080fd5b6000612703848285016124d5565b91505092915050565b6000806040838503121561271f57600080fd5b600061272d858286016124d5565b925050602061273e85828601612403565b9150509250929050565b60008060006060848603121561275d57600080fd5b600061276b868287016124d5565b935050602061277c86828701612403565b925050604061278d86828701612403565b9150509250925092565b600080600080600080600060e0888a0312156127b257600080fd5b60006127c08a828b016124d5565b975050602088013567ffffffffffffffff8111156127dd57600080fd5b6127e98a828b016124ab565b965050604088013567ffffffffffffffff81111561280657600080fd5b6128128a828b01612418565b955050606088013567ffffffffffffffff81111561282f57600080fd5b61283b8a828b016124ab565b945050608061284c8a828b01612403565b93505060a088013567ffffffffffffffff81111561286957600080fd5b6128758a828b016124ab565b92505060c088013567ffffffffffffffff81111561289257600080fd5b61289e8a828b016124ab565b91505092959891949750929550565b60006128b983836128d9565b60208301905092915050565b60006128d18383612a12565b905092915050565b6128e2816132cc565b82525050565b6128f1816132cc565b82525050565b60006129028261316b565b61290c81856131b1565b93506129178361314b565b8060005b8381101561294857815161292f88826128ad565b975061293a83613197565b92505060018101905061291b565b5085935050505092915050565b600061296082613176565b61296a81856131c2565b93508360208202850161297c8561315b565b8060005b858110156129b8578484038952815161299985826128c5565b94506129a4836131a4565b925060208a01995050600181019050612980565b50829750879550505050505092915050565b6129d3816132de565b82525050565b60006129e482613181565b6129ee81856131d3565b93506129fe81856020860161334f565b612a078161351b565b840191505092915050565b6000612a1d8261318c565b612a2781856131e4565b9350612a3781856020860161334f565b612a408161351b565b840191505092915050565b6000612a568261318c565b612a6081856131f5565b9350612a7081856020860161334f565b612a798161351b565b840191505092915050565b6000612a8f8261318c565b612a998185613206565b9350612aa981856020860161334f565b80840191505092915050565b6000612ac26032836131f5565b9150612acd8261352c565b604082019050919050565b6000612ae56025836131f5565b9150612af08261357b565b604082019050919050565b6000612b08601c836131f5565b9150612b13826135ca565b602082019050919050565b6000612b2b6024836131f5565b9150612b36826135f3565b604082019050919050565b6000612b4e6019836131f5565b9150612b5982613642565b602082019050919050565b6000612b71601f836131f5565b9150612b7c8261366b565b602082019050919050565b6000612b94602c836131f5565b9150612b9f82613694565b604082019050919050565b6000612bb7603e836131f5565b9150612bc2826136e3565b604082019050919050565b6000612bda6038836131f5565b9150612be582613732565b604082019050919050565b6000612bfd602a836131f5565b9150612c0882613781565b604082019050919050565b6000612c206029836131f5565b9150612c2b826137d0565b604082019050919050565b6000612c436020836131f5565b9150612c4e8261381f565b602082019050919050565b6000612c66602c836131f5565b9150612c7182613848565b604082019050919050565b6000612c89602f836131f5565b9150612c9482613897565b604082019050919050565b6000612cac6021836131f5565b9150612cb7826138e6565b604082019050919050565b6000612ccf6031836131f5565b9150612cda82613935565b604082019050919050565b612cee81613336565b82525050565b6000612d008285612a84565b9150612d0c8284612a84565b91508190509392505050565b6000602082019050612d2d60008301846128e8565b92915050565b6000608082019050612d4860008301876128e8565b612d5560208301866128e8565b612d626040830185612ce5565b8181036060830152612d7481846129d9565b905095945050505050565b60006020820190508181036000830152612d9981846128f7565b905092915050565b60006020820190508181036000830152612dbb8184612955565b905092915050565b6000602082019050612dd860008301846129ca565b92915050565b60006020820190508181036000830152612df88184612a4b565b905092915050565b60006020820190508181036000830152612e1981612ab5565b9050919050565b60006020820190508181036000830152612e3981612ad8565b9050919050565b60006020820190508181036000830152612e5981612afb565b9050919050565b60006020820190508181036000830152612e7981612b1e565b9050919050565b60006020820190508181036000830152612e9981612b41565b9050919050565b60006020820190508181036000830152612eb981612b64565b9050919050565b60006020820190508181036000830152612ed981612b87565b9050919050565b60006020820190508181036000830152612ef981612baa565b9050919050565b60006020820190508181036000830152612f1981612bcd565b9050919050565b60006020820190508181036000830152612f3981612bf0565b9050919050565b60006020820190508181036000830152612f5981612c13565b9050919050565b60006020820190508181036000830152612f7981612c36565b9050919050565b60006020820190508181036000830152612f9981612c59565b9050919050565b60006020820190508181036000830152612fb981612c7c565b9050919050565b60006020820190508181036000830152612fd981612c9f565b9050919050565b60006020820190508181036000830152612ff981612cc2565b9050919050565b60006020820190506130156000830184612ce5565b92915050565b600060c0820190506130306000830189612ce5565b81810360208301526130428188612a4b565b905081810360408301526130568187612a4b565b905061306560608301866128e8565b81810360808301526130778185612a4b565b905081810360a083015261308b8184612a4b565b9050979650505050505050565b60006130a26130b3565b90506130ae82826133b4565b919050565b6000604051905090565b600067ffffffffffffffff8211156130d8576130d76134ec565b5b602082029050602081019050919050565b600067ffffffffffffffff821115613104576131036134ec565b5b61310d8261351b565b9050602081019050919050565b600067ffffffffffffffff821115613135576131346134ec565b5b61313e8261351b565b9050602081019050919050565b6000819050602082019050919050565b6000819050602082019050919050565b600081519050919050565b600081519050919050565b600081519050919050565b600081519050919050565b6000602082019050919050565b6000602082019050919050565b600082825260208201905092915050565b600082825260208201905092915050565b600082825260208201905092915050565b600082825260208201905092915050565b600082825260208201905092915050565b600081905092915050565b600061321c82613336565b915061322783613336565b9250827fffffffffffffffffffffffffffffffffffffffffffffffffffffffffffffffff0382111561325c5761325b61345f565b5b828201905092915050565b600061327282613336565b915061327d83613336565b92508261328d5761328c61348e565b5b828204905092915050565b60006132a382613336565b91506132ae83613336565b9250828210156132c1576132c061345f565b5b828203905092915050565b60006132d782613316565b9050919050565b60008115159050919050565b60007fffffffff0000000000000000000000000000000000000000000000000000000082169050919050565b600073ffffffffffffffffffffffffffffffffffffffff82169050919050565b6000819050919050565b82818337600083830152505050565b60005b8381101561336d578082015181840152602081019050613352565b8381111561337c576000848401525b50505050565b6000600282049050600182168061339a57607f821691505b602082108114156133ae576133ad6134bd565b5b50919050565b6133bd8261351b565b810181811067ffffffffffffffff821117156133dc576133db6134ec565b5b80604052505050565b60006133f082613336565b91507fffffffffffffffffffffffffffffffffffffffffffffffffffffffffffffffff8214156134235761342261345f565b5b600182019050919050565b600061343982613336565b915061344483613336565b9250826134545761345361348e565b5b828206905092915050565b7f4e487b7100000000000000000000000000000000000000000000000000000000600052601160045260246000fd5b7f4e487b7100000000000000000000000000000000000000000000000000000000600052601260045260246000fd5b7f4e487b7100000000000000000000000000000000000000000000000000000000600052602260045260246000fd5b7f4e487b7100000000000000000000000000000000000000000000000000000000600052604160045260246000fd5b6000601f19601f8301169050919050565b7f4552433732313a207472616e7366657220746f206e6f6e20455243373231526560008201527f63656976657220696d706c656d656e7465720000000000000000000000000000602082015250565b7f4552433732313a207472616e736665722066726f6d20696e636f72726563742060008201527f6f776e6572000000000000000000000000000000000000000000000000000000602082015250565b7f4552433732313a20746f6b656e20616c7265616479206d696e74656400000000600082015250565b7f4552433732313a207472616e7366657220746f20746865207a65726f2061646460008201527f7265737300000000000000000000000000000000000000000000000000000000602082015250565b7f4552433732313a20617070726f766520746f2063616c6c657200000000000000600082015250565b7f596f752043616e2774206578656375746520746869732066756e6374696f6e00600082015250565b7f4552433732313a206f70657261746f7220717565727920666f72206e6f6e657860008201527f697374656e7420746f6b656e0000000000000000000000000000000000000000602082015250565b7f596f752063616e2774206578656375746520746869732c66756e6374696f6e2c60008201527f20796f7520646f6e27742061726520746865206669727374206f776e65720000602082015250565b7f4552433732313a20617070726f76652063616c6c6572206973206e6f74206f7760008201527f6e6572206e6f7220617070726f76656420666f7220616c6c0000000000000000602082015250565b7f4552433732313a2062616c616e636520717565727920666f7220746865207a6560008201527f726f206164647265737300000000000000000000000000000000000000000000602082015250565b7f4552433732313a206f776e657220717565727920666f72206e6f6e657869737460008201527f656e7420746f6b656e0000000000000000000000000000000000000000000000602082015250565b7f4552433732313a206d696e7420746f20746865207a65726f2061646472657373600082015250565b7f4552433732313a20617070726f76656420717565727920666f72206e6f6e657860008201527f697374656e7420746f6b656e0000000000000000000000000000000000000000602082015250565b7f4552433732314d657461646174613a2055524920717565727920666f72206e6f60008201527f6e6578697374656e7420746f6b656e0000000000000000000000000000000000602082015250565b7f4552433732313a20617070726f76616c20746f2063757272656e74206f776e6560008201527f7200000000000000000000000000000000000000000000000000000000000000602082015250565b7f4552433732313a207472616e736665722063616c6c6572206973206e6f74206f60008201527f776e6572206e6f7220617070726f766564000000000000000000000000000000602082015250565b61398d816132cc565b811461399857600080fd5b50565b6139a4816132de565b81146139af57600080fd5b50565b6139bb816132ea565b81146139c657600080fd5b50565b6139d281613336565b81146139dd57600080fd5b5056fea264697066735822122034e64d51789157ed7317ba178b21edb9d3d3a693110e959ebed910e49003f27964736f6c63430008040033a26469706673582212208ebf3747463210e32db19a72ddee12ed11d3f771469533826aec4ef734e5103064736f6c63430008040033",
  "linkReferences": {},
  "deployedLinkReferences": {}
}